:020000040000FA
:10000000E00300206D010000710100007301000099
:1000100000000000000000000000000000000000E0
:10002000000000000000000000000000750100005A
:1000300000000000000000007701000079010000CE
:100040007B010000E11200007B01000000000000C5
:100050007B01000000000000000000000000000024
:10006000000000007B010000000000000000000014
:10007000000000007B010000000000006929000072
:1000800085210000000000007B010000000000004E
:100090007B010000000000000000000000000000E4
:1000A0007B0100007B010000000000000000000058
:1000B0000000000000000000000000007B010000C4
:1000C00000F002F800F042F80CA030C808382418FC
:1000D0002D18671EA246AB4654465D46AC4201D180
:1000E00000F034F87E460F3EB6460FCC0126334270
:1000F00000D0FB1A3343A246AB4618476C310000D0
:100100008C31000000000000103A02D378C878C19A
:10011000FAD8520701D330C830C101D504680C6049
:100120007047000000000000002300240025002686
:10013000103A01D378C1FBD8520700D330C100D5A3
:100140000B6070471FB51FBD10B510BD00F0BEFE9F
:100150001146FFF7F7FF02F09DFC00F0D6FE03B456
:10016000FFF7F2FF03BC00F035FF00000648004730
:10017000FEE7FEE7FEE7FEE7FEE7FEE70348044989
:10018000024A044B70470000C1000000E00200205A
:10019000E0030020E0020020704770477047000035
:1001A0000246C80FC00781434B0030B54B405B008F
:1001B0009B0D20D01923DB06C91801231B0599428A
:1001C00020DB0324A40704251346AB400BD3002BEC
:1001D00004D1EB0613409B00E34204D401246407DE
:1001E000002312195941FF231B0599420BD2C90064
:1001F0000143500F09E0CB0204D501430803024339
:1002000005D0054830BDFF21C905084330BD08466B
:1002100007210905884330BD0000C07FF0B50C46BA
:10022000871A9C410D46861A9D4103D2C01BA141ED
:10023000D21963410D0D1F0DC94EEC1BAE435CD0AE
:100240007F057F0D0026002F51D02D05AC46A94318
:10025000DD020123ED0A1B051D4320231B1B24D4B3
:100260001746E740381871412F46E740CC199D40AA
:100270002818314661410C0D27D161449A4013D5AD
:100280000023401C594152000ED140084000012279
:100290004B005205D34207D305204007C14201D588
:1002A000B04900E0B0493046F0BD6B00002A00D0F4
:1002B00001229A181F23203C1B1B01D5002302E0BA
:1002C000E540281871410C0DD7D0012424050919E7
:1002D000C407CD0740084908E40F28436144002CB7
:1002E000D5D00024401C61419A40D0D1CDE76A05A9
:1002F000520DD9D1C90FC907D5E79C4D4E00002832
:1003000001D0012400E0002434195F00002A01D04C
:10031000012600E00026BE19954FAC420CD8AE4233
:100320000AD8B44206D001256D05EC42BCD0104677
:100330001946F0BD9942FCD000203946F0BDF0B519
:100340001FB40C460F46811A9F412546861A9D41CF
:1003500006D20125ED076F40401ABC4152187B417F
:10036000210D1E0D8D1BAC467D4D8D437ED0750538
:100370006D0D7CD00D05AE46AC431B031B0B794DB8
:1003800052429D41202366469B1B14D31746F740DB
:10039000381800260090744160462F460741E41942
:1003A00000989D402818664116D4714671189A40ED
:1003B00025D5012320E093182A466A415200002BDC
:1003C00000D0521C1E23203E9B1B002B61DD3541BB
:1003D000EE1728186641E8D5001876415B1C9A4054
:1003E00000D3401C4B05F3181524E34010D3002B19
:1003F00052D071467118D30FC01802D3491C05B0F2
:10040000F0BD0123DB079A42F9D140084000F6E72E
:1004100001225205B21801D1002853D00123CC0A81
:10042000DB029943891E002A08D1020C03D0020C7A
:100430000004103902E00246002020390023550B49
:1004400005D112020823550B01D152010D23550C81
:1004500001D112011B1DD50C01D192009B1C150D61
:1004600001D152005B1C2025EE1A01E02CE022E0B5
:100470000546F54015439840CA1AE1076918130567
:10048000C918002ABBDA032040070818C10FC907A2
:100490000FE071466118B2E7F10740080843711098
:1004A00071444A000CD001235B059A42A7D2C90FC0
:1004B000C9070020A3E74905490D26D1002001E026
:1004C0000028F4D100219AE7284D6600002801D0C9
:1004D000012100E0002171185F00002A01D00126EF
:1004E00000E00026BE19224FA94210D8AE420ED815
:1004F000B14208D001256D05E94206D01946A8028F
:10050000414010467BE79C4201D0214677E700201E
:10051000394674E710B50C465C4005D50124E40764
:100520006340FFF70CFF10BDFFF778FE10BD30B43D
:100530000C465C4004D50124E407634030BC6DE602
:1005400030BCFCE670B50124E40761400D465D4017
:1005500002D4FFF763FE70BD6340FFF7F0FE70BD8D
:10056000FF0700000000F0FF0000F07F0000E0FF48
:100570000000F87FF0B5F94D0C091E092C402E4003
:100580002F468BB0A7437DD0B543FCD0002E7AD048
:10059000002CFCD00D465D40ED0F2543AC1BFF2524
:1005A000AD0464190894C502440DC9022143500DDD
:1005B000DC0204430120C00701430443D20201913D
:1005C000200C110C00958C46010423468B430A91A4
:1005D00061460904E24D8A430991010A7D444919A3
:1005E0008039097805464D4301266D18F605751BBF
:1005F0006943C90C640B891C4C436418B5012C1B5E
:10060000250C2E04B4434C434D43210C6918890931
:100610000591009DE90701D00121C90704912C46ED
:1006200001996708CD072F434C08059DE10B4D4309
:100630002D0C29466646754302950D4645432E46C8
:10064000029D7D1BB44100950D465D4301942C0C29
:100650002F040D465543AE462D0C3D4302950394A1
:100660007546049C2D04641B049406D2029C039DD1
:10067000641C002675410395029401AC70CC009F68
:100680007D1B01E03EE162E1B44109040095079160
:1006900001940599A4086143090C0C464443650B79
:1006A000E7040C4666467443A646640B3C43039538
:1006B00002947446049DE4042C1B049406D2029C0C
:1006C000039D641C002675410395029401AC70CC17
:1006D000009F7D1BB44101940C465C430095650F5F
:1006E000E7000C465443A646640F3C43039502942E
:1006F0007446049DE4002C1B049406D2029C039DC6
:10070000641C002675410395029401AC70CC009FD7
:100710007D1BB441AE09AF06049DC900AD092F434E
:10072000049DA406AD060495079D344369180791FE
:10073000059DE10B4D432D0C2946664675430295F8
:100740000D4645432E46029D7D1BB44100950D4646
:100750005D4301942C0C2F040D465543AE462D0CE1
:100760003D43029503947546049C2D04641B049438
:1007700006D2029C039D641C0026754103950294D9
:1007800001AC70CC009F7D1BB44101948C05069494
:10079000079C890A611800950791019C0599A40896
:1007A0006143090C0D464543680BEF040D46644652
:1007B00065436C0B3C43049FED047D1BAC4602D2A9
:1007C0000025641C6841009E019D371B8541084639
:1007D000584301950C46460FC5005443600F28430B
:1007E0006546E4002C1B02D20025401C6E41019D91
:1007F0003F1AB5412846BD09800628438446A00912
:10080000BF064E020699A40676180743079D0020EE
:1008100068410A99079019430020099B009060469F
:10082000FF1913434041E20F64003A43A4460446D3
:10083000D71A8C41A04203D90120009020463A46A5
:10084000C70F941840416246D20F224364466400A9
:100850000494009CBE466400D71AA446044602973E
:100860008C417746002F01D1A04204D96046401C3C
:100870008446029A2046C40FA64694184041049A22
:100880000546D20F224364466400D31A8D41714657
:10089000002901D1A84202D928461A46641C1043F7
:1008A0000122002800D0164361020020079B89190D
:1008B00004465C410223002C02DB491813466441C4
:1008C000089DCE0A2D145D194B056705E10A2C051C
:1008D0000D1908993E43C9076940002B08D0934081
:1008E00006D30022761C5141002B01D176087600F8
:1008F0001C4A002D43DB154241D0AA433FD030466D
:100900000BB0F0BD06180D464D41174C7642AC4178
:100910001AD395181C465C41134A6D42A24113D369
:10092000012252054C00D4420AD15C00D4420BD0C3
:100930004B4002D592021143E2E749004908DFE744
:100940005940C90FC90718E000200849D8E70548F1
:1009500001420DD10342F7D0F2E700000000FF078B
:10096000D42B00000000F07F0000E0FF0000F87FC3
:10097000114859400143C01241400020C0E7012303
:10098000089A9B069A4205DC032252078918C90F70
:10099000C907B5E7052252078918074A1143D21241
:1009A0005140ADE770B515461C4602460B46284639
:1009B0002146FFF7DFFD70BDFFFFFF7F30B5034627
:1009C000CA02400D1043164D164C0A1502D02043A2
:1009D000002A06DBAA1A002A12DDD040FF2A0BDC0F
:1009E00030BD5205520D01D140004008AA1A07D46B
:1009F000D0404042FF2A01DD002030BD0028FCDD50
:100A00004A00002B01D0012000E000201018012234
:100A10005205D042F0D8C817C043604030BD000036
:100A20001E040000000000801F22030C02D10F22D0
:100A3000000402D0030E03D004E0002001467047FA
:100A40000002083A030F01D10001121F830F01D1E8
:100A50008000921E002801DB4000521E1205511832
:100A60004205C012411810467047C10FC90700D097
:100A70004042012292071143D6E701218907D3E7BB
:100A8000F0B58B4C0F09254689B0BD437BD01D09BD
:100A90002646AE43FAD00E465E402740F60F3E4350
:100AA000254071D024012142FBD0FF24AD19A404BC
:100AB0002D1B039501252D05DB02DB0AC9022B4303
:100AC000C90A29431E010901040F130F050121431F
:100AD0001701880B820391432D098C46A90B1E43F5
:100AE0008A039543B30B9A0396433F09BA0B9403C9
:100AF000A74302962E467E430497B6464E19D71951
:100B00000C460196544305977E43371B7646BF1B20
:100B10003601B646BE0B361900967646BC04371928
:100B2000009C01D3641C00946400002F01D00126B6
:100B30003443029E049F754366467E4304967600C6
:100B400034196E0034190094029C019E1C196643EE
:100B5000751BAE46069465464519059C05956C4384
:100B6000594375460891691A0191049E0146514303
:100B7000A41B0491611A009C0791E10605D061094C
:100B80000122114302E072E06EE06109089D002736
:100B90002C0A2D066918049D7C412A0A2D06691825
:100BA000019D6241AC0DAD026D185441079A910D43
:100BB000920255196141029A644658435443069B78
:100BC000059A5A43121A131B9A0E9B015B187A411D
:100BD000010B0005C3185141220A200644195A414D
:100BE0009A4200D2491C01204002814203D31523BE
:100BF0000226F64302E014230326F6432020C51AFA
:100C0000A9401746AF40DA400A4320460399D8402E
:100C10000914731819055118039A3843D207514023
:100C2000AC4009D00122944006D30022401C51411F
:100C3000002C01D1400840001E4A934212D30122E9
:100C400003989206904207DB0520400709181A48CE
:100C50000143C012414004E0032040070818C10FBF
:100C6000C907002009B0F0BD0020F107FAE7051818
:100C70000C464C4111486D42A04115D394181A46B8
:100C80005A410E48644290410ED301204A0040056B
:100C9000824209D35A00824206D35940C90F084AFA
:100CA000C90700201143DDE700200649DAE700000C
:100CB0000000FF07FE070000FFFFFF7F0000E0FFCE
:100CC0000000F07F0000F87F0121C90501234118D1
:100CD00042001B06D3185B0E0AD0C1100722D206B1
:100CE000891840075242D14201D5520089187047F5
:100CF000090208D50146002A03D0C10FC907002008
:100D0000704710467047420202D0002002497047E7
:100D1000072109050143F4E70000F87F10B50146FB
:100D20009E240002CA15A307002A02D01843002AF5
:100D300004DBA21A002A0CDDD04010BD1206120EF0
:100D400001D140004008A21A03D4D04040420028FC
:100D5000F3DDFF2248001206904201D9002010BDA9
:100D6000C817C043584010BD1F22030C02D10F22E8
:100D700000041CD0030E01D10002083A030F01D178
:100D80000001121F830F01D18000921E002801DB99
:100D90004000521ED20551180212511819229040DB
:100DA00004D3491C002801D149084900084670476E
:100DB000C10FC90700D04042012292071143D3E777
:100DC00001218907D0E70000F8B5264C4E00069DAA
:100DD000A6420AD8A64201D1002806D15E00A6424A
:100DE00003D8A6420AD1002A08D00D2424042542A3
:100DF00033D02946002000F090F8F8BD0C461C4383
:100E000011D4994207D0C81A02D3EFF30080F8BD7D
:100E1000EFF30080F8BD801A02D3EFF30080F8BD35
:100E2000EFF30080F8BD09242407E5008B4207D0CA
:100E3000581A02D3EFF3008006E0EFF3008007E0DA
:100E4000101A03D3EFF30080A04303E0EFF3008018
:100E5000A043284380F30088F8BD009500F074F8A3
:100E6000F8BD00000000E0FF10B5FF231B064400A2
:100E70009C421DD84C009C421AD80346124A0B4390
:100E800007D4401A02D3EFF3008010BDEFF30080C7
:100E900010BD081A03D3EFF30080904305E0EFF391
:100EA000008001219043C907084380F3008810BDEA
:100EB0000D231B041A4204D01146002000F02DF827
:100EC00010BD00F04BF810BD00000090754600F01A
:100ED0004DF8AE46050069465346C008C000854639
:100EE00018B020B5FFF74AF960BCB64600260027C7
:100EF000C0C5C0C5C0C5C0C5C0C5C0C5C0C5C0C5CA
:100F0000403D490849008D46704710B50446C0462B
:100F1000C0462046FFF723F910BDC80212D548038A
:100F2000400F002804D0C803C04301218840704707
:100F3000EFF300800001000903210907084380F353
:100F4000008870470020704710B500200249029ABF
:100F500000F010F810BD00000000F87F10B5024846
:100F600000F008F810BD00000000C07F0048704786
:100F70004000002010B50C461107090F092904D0C4
:100F80000A290AD008290CD104E011460820FFF7ED
:100F9000C4FF06E0510606D501E0510601D5012047
:100FA000C007214610BDD10607D501010909CC08AB
:100FB0004907000E0006044309E0410F20024907DB
:100FC000000A0143200E00061D22D14101430846BC
:100FD000E7E7000001491820ABBEFEE7260002004B
:100FE0007047000070B516490B78164AD054581C4B
:100FF00008701378552B20D1C0B20B281FD350781E
:101000005038C3B2092B18D89379D4792402E31845
:10101000147A557A2D022C192404E31840B280006A
:1010200009A42058147955799678D2781202921929
:101030002D022C192404A2180CC00020087070BDC9
:101040009A010020A0000020D00200208802002089
:10105000A802002090020020B80200209802002080
:10106000C0020020B0020020A0020020C802002020
:10107000811E091F00BFFCD270470000F0B5664A10
:101080008218294BC318087920280DD000281DD1BB
:101090000C68641E5460D56E244C25408835D56696
:1010A0001646703688251DE00C68641E5460D46EA8
:1010B0001E4D2C401E4EA419D466146F2C40A4194A
:1010C0001467012465071B4C16460BE00C68640886
:1010D0005460D66E154C26400525ED017619D6666E
:1010E00016467036376827402F433760D46A4C4D18
:1010F0002C40D462146B2C4014630024D464146517
:101100008F24E443D56F2540D5671D6825401D60B9
:1011100049790143BD2008401168074B0B40C018B6
:10112000801C1060F0BDC0468418000024F93FF018
:1011300001040000FFFFFFCF4000FFCFB0B5364AEB
:1011400080184A6842600A78222A57D8930001A47E
:10115000E3589F46F3110000FD110000F311000059
:10116000FD110000FD110000FD110000FD11000047
:10117000FD110000FD110000FD110000FD11000037
:10118000FD110000FD110000FD110000FD11000027
:10119000FD110000E1110000FD110000E11100004F
:1011A000FD110000FD110000FD110000FD11000007
:1011B000FD110000FD110000FD110000FD110000F7
:1011C000FD110000FD110000FD110000FD110000E7
:1011D000FD110000E1110000FD110000E11100000F
:1011E00003231B0704689C4301235B07E318036088
:1011F00004E003231B0704689C4304600B69C3607D
:10120000CB68064C1C40C36A054D1D402B19C362B8
:10121000097A11430160B0BD04180000777702001D
:101220008888FDFF10B507239B04194092008018A1
:10123000024A84589C436118815010BD3018000048
:1012400010B5029CA400001911431943014A8150B2
:1012500010BDC0465018000092008018014A81500D
:101260007047C0461018000010B501221203831801
:101270000C789C604B7883508978014A815010BD6E
:101280000C110000B0B51122120283580124A343AF
:1012900083508B780C881C438B882343094C1C405B
:1012A0008358094D1D402B1983508B79CC791C43F1
:1012B000097A21437E231940801842689A435118C5
:1012C0004160B0BD18670000E798FDFF10B501222E
:1012D000120383180C789C604978815010BD00007F
:1012E00080B50D480068012815D10C480068002819
:1012F00002D001F0EFFB80BD0948002101600948E0
:10130000016009480160094801605748016054487C
:1013100001600748016080BD301140403402002068
:1013200008020020040200200C020020100200200D
:101330009C010020F0B585B04949086800220A6088
:10134000484E71680191B76882C674683460B568A8
:10135000756045490B6802930A60444B59689A6866
:101360000391196004925A60083EFFF721FDFFF7D0
:10137000D5FC3061019EB742394600DB31468C42D4
:10138000224600DB0A4695422B4600DB1346984274
:10139000014600DB1946B7423A4600DC3246944229
:1013A000234600DC13469D422A4600DC1A46904242
:1013B000034600DC134659183018C01900194019AB
:1013C000401A0326314601F057FCFFF7F1FC28498B
:1013D00001900860254FFC68BC600298FFF7E8FCAC
:1013E0003D69FFF79BFCFD603861039F0499B9429A
:1013F00000DB39468C42224600DB0A4695422B46EA
:1014000000DB13469842014600DB1946049ABA42B3
:1014100000DC3A469442234600DC13469D422A46AD
:1014200000DC1A469042034600DC1346591838186F
:10143000049A801800194019401A314601F01CFC2A
:10144000FFF7B6FC01460B480160019801F058FD1A
:101450003F21090601F0EEFD0749086005B0F0BD27
:101460004402002058020020400200206C020020AC
:10147000C4010020C8010020C0010020B0B504252F
:101480000D48405FFFF794FC0721CC06214601F090
:10149000D1FD0A4901F0CEFD094908600948405FC5
:1014A000FFF786FC214601F0C5FD074901F0C2FDAA
:1014B00006490860B0BDC0469002002000003443D9
:1014C000D0010020A80200200000FA44A80100205A
:1014D00009480168012905D1002101600748016818
:1014E000491C01600648002101600120C106054A2F
:1014F0001160800610607047240200202002002046
:101500001C02002090120A4080B501F051FB80BD02
:10151000F0B585B0DE4F3868042803D1DD48006897
:1015200000F050FCDC4D2868002800D1EAE0DB48E0
:1015300000240460DA4E3068022809D1D9480268D4
:10154000D9480168002922D0002A20D0D748CAE013
:10155000C01E012800D9CBE0D54F0A263E60FFF718
:10156000D3FFD448006800281FD0CC480460CD4881
:101570000168CD48006800282ED000292CD0CE4824
:1015800000210160CD48CE490160CE4870E0501E78
:101590001346834148424841184300D1A2E0002944
:1015A0002DD1002A2BD0C8489DE00020BB490860FF
:1015B0003E60BC490968BC4A1268002A35D000293F
:1015C00033D0BD4800210160C048B4490860BC4820
:1015D000401EBA4908608BE04A1E0B4693414242C6
:1015E00042411A4333D0002845D1002943D0B248A4
:1015F00000210160B148B2490160B54838E00125D9
:10160000B44803685C1E1846A041B34C2468049497
:10161000002C039500D00546002D21D0049D002DFF
:101620004AD1002B48D0AD485DE04B1E0C469C4192
:1016300053425341234315D0002A00D0FCE0002937
:1016400000D1F9E09C4800210160A14802E09A48DD
:101650000460A3489149086098480168491C46E025
:101660009F4840E0944908609448954901609C482F
:101670008A4908603CE0974A1268531E16469E410C
:10168000954B1B68002B00D10126002E00D1FAE0FB
:10169000002B00D0F8E1002A00D1F5E186480021B6
:1016A000016086480168864A921E914220DD8D4A7B
:1016B0007A4B1A60491C1AE00C4614432C431C4315
:1016C0006042604101908848006802908748006845
:1016D000002C00D028E1002800D125E1029C002C3C
:1016E00000D021E182486D49086073480021016003
:1016F00080480068002805D10120C007674A1168AA
:10170000414011606A4C2068FFF752FB7A4D29680E
:1017100001F044F92068FFF74BFB296801F07AF9E2
:1017200076480068FFF7D0FA05460F46744800680F
:10173000FFF7CAFA049003910026724C32460296D3
:101740002346FFF79DF92A463B46FEF7E3FE074690
:10175000009152480068FFF7B7FA32462346FFF778
:101760008FF9FFF72BF9FFF780F9024601900D463C
:10177000384600992B46FEF7DAFEFFF71FF90746B9
:101780006148076061480068FFF79EFA06460C460C
:101790005F4B04980399029AFFF772F93246234689
:1017A000FEF7B8FE019A2B46FEF7B4FEFFF706F9E6
:1017B000584908607D22D500574AAF422B4602DCCB
:1017C0009742134601DA504C2360544EA84202DD82
:1017D0000D60284606E0904202DA0A60104609E0F1
:1017E000002807D480213160012109023161C04302
:1017F000411906E080213161012109023160281878
:10180000411E474C01222046FFF726FD3E48006856
:101810002021002805D4316040213161C0434119A5
:1018200004E03161402131602818411E0022204629
:10183000FFF712FD05B0F0BD0127264B1B685E1EA9
:101840001C46B441244E36680496002E03973E464B
:1018500000D02646002E0E4F00D10AE1049C002C39
:1018600002D1002B00D0C2E61F4C26681F4C246812
:10187000002C00D02DE1002E00D12AE10E480021DD
:1018800001602848A1E60C48046015489DE6C04662
:101890003C020020CC01002038020020F80100208A
:1018A0003C00002018000020100000200000C8C2EA
:1018B00028000020540200202C020020FC010020FF
:1018C000112700000000AAC2000096430000AA42AF
:1018D0000000C8431C000020140000200000484302
:1018E0000000C8C30000FA43300000203800002088
:1018F000000096C328020020C00100204C020020F6
:10190000B40100200000E03FBC010020480200209C
:101910000000E0BFB801002018FCFFFF90120A4051
:101920000080084000001644044640420094604194
:10193000019C0440012C03D10298002800D072E6DB
:10194000002B00D0D4E6002D00D0D1E6002A00D034
:10195000CEE6002900D0CBE60298002800D0C7E6EA
:101960000098002800D0C3E6DD4C2268E24D2968CB
:10197000E048814201DD521C22600A2A02DCF24862
:10198000D44B1860E8480368012B38D1052A36DBB0
:10199000D848814233DDDC480068EC4901F0B0FAF8
:1019A0000446DB4901F062FA002800D06DE1D94914
:1019B000204601F066FA002800D066E1FFF788FDB6
:1019C0000020C4490860C64C2060C1490860042159
:1019D0003960BE49DE4A0A60BF4914220A60D34911
:1019E00008600220D049086000F0D2FF3068801EF5
:1019F00041424141039129682268CB48036803981A
:101A0000002800D174E6032B00D071E6052A00DA25
:101A10006EE6B848814200DC6AE62646B7480068B0
:101A2000FFF723F8B64AB74BFEF7A4FDFEF7B8FB65
:101A30000146B548006801F063FA0446B44901F074
:101A400015FA002800D028E1B249204601F019FA21
:101A5000002800D021E1FFF73BFD00209C490860F1
:101A60009C4908609C490860B04908600520AE495F
:101A700007E19B4908609C48801E9A490968814299
:101A800000DC35E6AC48F3E5984E36680496984E8F
:101A90003668002E10D1049F002F0DD090480021F1
:101AA0000160904801684A1C02608F48C01E814254
:101AB00000DC1DE69F48DBE5049F002F1BD1002EB4
:101AC00019D08748002101608648874901609848FD
:101AD000CEE5002E74D1002C72D081480021016027
:101AE000804801684A1C02607F48C01E814200DCB9
:101AF000FEE58F48BCE5002A00D0F9E5002B00D0B8
:101B0000F6E5002900D0F3E5002800D0F0E579489B
:101B1000503879490968814200DCE9E5704A10686B
:101B2000411C1160042800DAE2E56E480460734845
:101B30000068FEF79AFF724A724BFEF71BFDFEF734
:101B40002FFB0146D048006801F0DAF96F4901F037
:101B5000D7F96F49064601F089F9002800D0A3E0C3
:101B60006C49304601F08DF9002800D09CE0FFF769
:101B7000AFFC5A4804605A480460564804602C6020
:101B80000420514908605D480168002920460BD0B7
:101B90000846FEF76AFF614A614BFEF7EBFCFEF771
:101BA000FFFA604901F0ACF914214B4A1160474932
:101BB00008605D4804605D48046000F0E9FE97E558
:101BC0004C4C4F3C4C4E3668A64200DA0120114383
:101BD000049A13430B4300D00398002800D087E5F4
:101BE0003F4A1168481C1060042900DA80E53D492D
:101BF00000240C60414909680E46102901DB1D28AC
:101C00001ED8A14800684D4901F07AF90490304689
:101C1000FEF72BFF3A4A3B4BFEF7ACFCFEF7C0FA4F
:101C20000146049801F06CF90646394901F01EF9A5
:101C3000002841D13749304601F023F900283BD133
:101C4000FFF746FC0120254908602548046021482B
:101C500004602C600420386014201F49086032485A
:101C600004603248046025480068FEF7FEFE244AFE
:101C7000244BFEF77FFCFEF793FA324901F040F95E
:101C80001249086000F084FE32E50420386000202C
:101C9000134908600D48814929E504203860002077
:101CA00030600A49086023E50420074908600C48B1
:101CB0000460064818491AE50420386008480460A2
:101CC00002481F4913E5C0463C020020CC01002019
:101CD00038020020F80100202800002054020020D3
:101CE0002C020020FC010020112700003000002001
:101CF000380000209F0F00009C01002020020020DF
:101D00009A9999999999F93FD0010020000034C21D
:101D100000002041000020C100003442CDCCCCCCDA
:101D2000CCCCFC3F0000A0C05002002000020020EC
:101D3000000016C4000016440000FAC30000074368
:101D4000000007C30000A2C20000DCC200002F4355
:101D500000002FC380B50A46184900280AD4091A82
:101D6000002A16D0012A27D11548202202604022DD
:101D7000026109E04118002A15D0012A1CD110483F
:101D8000202202614022026096480022FFF764FA96
:101D900080BD0B488022026001221302036191483A
:101DA000FFF75AFA80BD0648802202610122130221
:101DB00003608C48FFF750FA80BDC046E70300007F
:101DC00090120A40F0B581B005462F4806682F48AA
:101DD00006602846314601F085F904462C4F3860EC
:101DE0002C4901F038F8002807D10021304601F0D5
:101DF00032F8002801D028490CE02849204601F09B
:101E000040F800280FD10021304601F02FF80028BB
:101E100009D12349304601F073F80146284601F004
:101E200061F9044638601F4801680460204601F0EB
:101E300059F901461C48006801F0FCF805461B48AA
:101E40000068214601F0F6F8294601F059F80446E9
:101E5000174800681749096801F0ECF8214601F0BD
:101E60004FF80546144E3060144C214600F0FEFF3A
:101E7000002806D1124C2846214600F0ECFF00282D
:101E800000D1346001B0F0BDD0010020D4010020A9
:101E9000A0010020000034C30000B4C3000034439C
:101EA0000000B443B0010020000000200400002026
:101EB000AC010020A4010020B40100200000FA447D
:101EC0000000FAC4214982224A60214808230360A5
:101ED0008A60102303604A651E4A531C0B651E4B23
:101EE0004B660B668123CB600B614B618B610A6291
:101EF0004A62CA658A65194B4B638B63CB630B647B
:101F00000B60CB61164BCB640B638A62CA620146DD
:101F10003039032292060A60014640390F225301EC
:101F20000B601049016010050F490B6803430B60FB
:101F300010040A6902430A610C48016A0C4A114301
:101F400001620168114301607047C0460C80424045
:101F5000D0120A40810004008100010081000600C7
:101F600081000500E001000C90130A4028100A408F
:101F7000000C0003F0B581B01A4C1B492046FFF756
:101F800073F91A492046FFF779F800250095204695
:101F900029462A462B46FFF753F9204629462A466A
:101FA000FFF740F97D20C600204631462A46FFF75C
:101FB00053F901270097204629462A462B46FFF76A
:101FC0003FF9204629463A46FFF72CF9204631468C
:101FD0003A46FFF741F9064887600321016001B0E6
:101FE000F0BDC046008008403432000038320000A6
:101FF000009108400A48002101600A480168032254
:102000009143016001210A03436813434360FF20A9
:102010000002054A1368834388031818106070474C
:1020200008030B4000010B4000E400E008480949A8
:102030004160FF210906084A13688B430321890781
:102040005918116000218160072101607047C04666
:1020500010E000E0FF7C000020ED00E010B50C4C2B
:102060000C492046FFF700F90B492046FFF766F8B8
:102070000A480168012211430160094801684023B0
:102080000B43BF218B4303600648026010BDC0466E
:102090000040084040320000443200002850084010
:1020A00010E400E00851084010B5174C17492046CD
:1020B000FFF70CF916492046FFF7E4F80321CA039D
:1020C00014480368934303600269134B13401A33A7
:1020D000036142690A433C218A434261426801210B
:1020E0000A4043688B439A1842608A020B4B1C6873
:1020F00014431C60FF221206094B1C6894431C60A9
:1021000002680A43026010BD00801040583200008F
:102110005A320000009110400000FFFF289010404C
:102120000CE400E080B500F00DF8FFF7CBFEFFF700
:1021300061FFFFF71FFFFFF791FFFFF7B5FFFFF705
:1021400075FF80BD10B5094809494160094A5160D1
:10215000094B5960094C61600949016011601960BF
:1021600021601020FEF784FF10BDC04600080A4021
:10217000030000B100880840004808400088104073
:1021800001000026F0B581B0F5480068C0B2012812
:1021900041D1F44D2868401C2860F34A1068411C66
:1021A0001160312807DBF14801210160C806F04ABF
:1021B000106188061061FFF761F9FFF7BBF8ED4E7B
:1021C0003068FEF7F5FD0146EB48006800F098FE28
:1021D000FEF7A4FD0446306028680A2801D10020DB
:1021E0002860E6480068FEF76FFD05460E46E44AA3
:1021F000E44B00F01AFE00280FD1E14AE24B2846DA
:10220000314600F01DFEE1490968002801D100298E
:1022100007D0002938D101B0F0BDDC4800680028A3
:1022200032D1DB480168491C016000686428F2DB98
:10223000D64901200860D74900220A600103D64B25
:102240001E680E407242724141031D680D406B4290
:102250006B41360B3340690B314003D1002B01D168
:10226000002A0FD0002D01D1054600E00225002AEA
:1022700000D154E1002B00D055E1002900D0042505
:10228000C6490D60C6490860C64F3868C34E3168FC
:102290000125012922D1002820D1C3480421016051
:1022A000C2498C4200DCF9E0B0490A68012A05D134
:1022B00000220A60BE490A68521C0A600021AA4A2C
:1022C00011600122D306AA4C2360920622600160AD
:1022D000B84801603868401C38603168022900D075
:1022E000DCE0B54C216802460A430DD1AE4804211A
:1022F0000160A0480068B14988424FDDAD480A211D
:1023000001600120206049E0002847D1012945D122
:1023100000F04EFCAA480068411E8841A94909689E
:102320004A1E9141A84A1268002A2A4600D10A464C
:10233000002A294600D10146A4480268501E824165
:102340000029284600D11046A14909684A1E91413A
:102350000028284600D108469E4909684A1E914136
:102360000028284600D10846012817D10020206007
:102370003968491C39607D490A68012A04D108601E
:102380008B490A68521C0A60774908600121CA0615
:10239000774B1A6089061960764908603868012809
:1023A0000CD100F005FC8C480168002906D17E495B
:1023B00000220A60894901220A60026020683968A7
:1023C00002290FD100280DD1774804210160694806
:1023D00000687A4988424FDD76480A210160012071
:1023E000206049E0022947D1012845D100F0E0FBF7
:1023F00073480068411E8841724909684A1E91412C
:10240000714A1268002A2A4600D10A46002A294643
:1024100000D101466D480268501E824100292846BD
:1024200000D110466A4909684A1E91410028284691
:1024300000D10846674909684A1E9141002828468C
:1024400000D10846012817D1002020603968491CB6
:10245000396046490A68012A04D1086054490A686B
:10246000521C0A60404908600121CA06404B1A60AC
:10247000890619603F490860386803280ED100F0CA
:1024800097FB55480168002908D1544901220A6088
:1024900053490A60444900230B60026030680328F6
:1024A00000D01DE142480068032826DC4249096843
:1024B0003C6822460A4300D0B5E03B4904220A604A
:1024C0003C4919220A602B4A1268464B9A4200DCAA
:1024D00005E11E230B60444B1B68002B28D100280C
:1024E00026D1324EA03EB2422C4E21D90D2008609A
:1024F000012031490860FD4892E02B480024046027
:10250000FB480460354804602A48046020462146A0
:10251000FFF720FC01212046FFF71CFCDFE0054609
:10252000002B00D1A9E60325002900D0A7E6A7E6E5
:10253000002B5FD100285DD0F5498A425AD90D227F
:10254000F5490A600121F54A1160FEF78EFA274A23
:10255000274BFEF70FF8FDF723FEE4495EE0C04687
:1025600020500840300200201C02002024020020DD
:1025700090120A409C010020C0010020D0010020E0
:10258000FCA9F1D24D62503F4D6250BFDC010020EA
:10259000D8020020CC01002080130A403C0000201B
:1025A00034020020500200203C020020AB0D00004D
:1025B000200200202800002080020020B70B00002D
:1025C0001400002038000020300000201C000020F3
:1025D0001000002018000020000200203802002017
:1025E000D8010020E7030000540200209A9999992D
:1025F0009999F93FC6498A42C74970D9012B6ED1D2
:102600000D220A600121C54A1160FEF72EFAD04A58
:10261000D04BFDF7AFFFFDF7C3FDCF4900F070FCD5
:10262000B74908600121002C4ED101294CD100F09E
:10263000BFFABB480068411E8841BA4909684A1E72
:102640009141B94A1268002A2A4600D10A46002A56
:10265000294600D10146B5480268501E8241002932
:10266000284600D11046B24909684A1E9141002807
:10267000284600D10846AF4909684A1E9141002802
:10268000284600D1084600281DD00020A349086034
:1026900099490A68012A04D108609E4A1168491CB8
:1026A0001160944908600121CA06944B1A608A0699
:1026B0001A60A34A116095490860B74908603868F4
:1026C000441C3C6000E03C68012C08D19B48016838
:1026D000002904D1012101600020AF490860306861
:1026E000042800D0EEE08B4800680F2828DC8B4BD4
:1026F00019683C6822460A4300D087E0F449042266
:102700000A60854B19211960A3490A688E498A42DB
:1027100000DCD7E01E2119607D4B8C4909680091CF
:1027200000291FD100281DD11946C8398A4219D95C
:102730000F20794908600120784B1860874862E0D3
:10274000E348002404607F480460DF480460724866
:10275000046020462146FFF7FDFA01212046FFF7DD
:10276000F9FAAFE0411E06468E41009F7942794159
:102770003140012919D18C3B9A4216D90E2814DC1C
:102780000F21654A11600121644E3160FEF76DF939
:102790006F4A704BFDF7EEFEFDF702FD6F4900F04A
:1027A000AFFB3346574E584F2DE0634B64339A428C
:1027B000554F01D8002300E00123524E1940012952
:1027C00009D10F2807D10F20534908600120534B2E
:1027D0001860644817E062498A42504A4E4B71D3F0
:1027E000009901296ED10F21196001211160FEF7B6
:1027F0003CF9574A574BFDF7BDFEFDF7D1FC564952
:1028000000F07EFB454B3E4908600121002C4ED173
:1028100001294CD11C4600F0CBF941480068411E0B
:102820008841404909684A1E91413F4A1268002A7E
:102830002A4600D10A46002A294600D10146F64818
:102840000268501E82410029284600D11046F349F3
:1028500009684A1E91410028284600D10846ED49E2
:1028600009684A1E91410028284600D108460028E0
:102870001CD00020206020490A68012A04D1086089
:10288000244A1168491C11601A4908600121CA06CE
:102890001A4B1A608A061A608B4A11608C490860CC
:1028A0003D4908603868441C3C6000E03C68012CED
:1028B00008D122480168002904D1012101600020CB
:1028C000354908601348006801211028084600DBDC
:1028D0000020C9433268521F8A4200D30546012DA9
:1028E00000D098E4FEF714FE01B0F0BD00003442C1
:1028F000F80100201C0200202402002090120A404F
:10290000CC0100203C000020500200203C020020AE
:10291000AB0D0000200200202800002080020020D3
:102920001400002038000020300000201C0000208F
:102930001000002018000020B70B0000000200204B
:1029400038020020F8010020E703000054020020B4
:102950009A9999999999F93F000007C30000344268
:102960004C0E00000080594280B506480068C0B295
:102970000B2806D104480068044908700878FEF75F
:1029800031FB80BD2090104024911040DC020020DB
:1029900001480021016070479C01002070B500F0E3
:1029A000A1FB0446164804601648016804602046EE
:1029B00000F098FB054614480168204600F03AFBF9
:1029C000044612480068294600F034FB214600F016
:1029D00097FA01460E4E306800F092FA05463060D4
:1029E0002A4C214600F042FA002806D1284C2846FD
:1029F000214600F030FA002800D1346070BDC04696
:102A0000E001002014020020080000200C0000203B
:102A10004802002070B500F065FB044616480460CB
:102A2000164801680460204600F05CFB0546144827
:102A30000168204600F0FEFA044612480068294664
:102A400000F0F8FA214600F05BFA01460E4E3068BD
:102A500000F056FA054630600C4C214600F006FAAC
:102A6000002806D10A4C2846214600F0F4F9002837
:102A700000D1346070BDC046E4010020180200207F
:102A800020000020240000204C02002000007A4496
:102A900000007AC4FFF746FB0948022101600121CA
:102AA000CA03084B1A6002600904196001600648F5
:102AB0000021016005480160054804210160FEE72E
:102AC00000E100E080E200E0380200203402002053
:102AD0003C020020F0B54E4801684905CA0F2A495A
:102AE0000A600121CB0207681F40FB0A274C2360C4
:102AF000274C2668274D2C689C4201D1964217D05E
:102B0000002C07D1002F05D0234C2468002E09D0BB
:102B1000641E08E0012C08D1002F06D11E4C246849
:102B2000012EF5D1641C1C4E3460194C22602B60C0
:102B300002689201D20F194B1A60090605680D4010
:102B4000280E1749086017490C68174B1E68864203
:102B500002D1944200D1F0BD002E07D1002D05D046
:102B6000124D2D68002C09D06C1E08E0012E08D1F2
:102B7000002D06D10D4D2D68012CF5D16C1C0B4D8F
:102B80002C600A601860F0BDF0010020E801002010
:102B90000C0200200402002040020020F40100206A
:102BA000EC01002010020020080200204402002056
:102BB00017480168CA0B01210B469343154A13605D
:102BC0000268120C0B469343134A13600268520CBE
:102BD0000B469343114A13600268920C0B469343D1
:102BE0000F4A1360026892080B4693430D4A136024
:102BF0000268520A91430C4A116001688902C90FA8
:102C00000A4A116000684004C00F09490860704713
:102C100080130A40180000201C0000201000002033
:102C20001400002030000020380000203400002074
:102C30002C00002043088B421AD3002203098B4248
:102C400079D3030A8B425ED3030B8B4242D3030C2E
:102C50008B4227D30902FF2212BA030C8B4202D304
:102C60001212090203D0030B8B4233D31AE0D3E0D4
:102C7000411A8041401C704703460B4371D44308FE
:102C80008B42F5D3002203098B4254D3030A8B42B3
:102C900039D3030B8B421DD3030C8B4202D39446D2
:102CA0006EE0090AC30B8B4201D3CB03C01A524119
:102CB000830B8B4201D38B03C01A5241430B8B42CF
:102CC00001D34B03C01A5241030B8B4201D30B03B8
:102CD000C01A5241C30A8B4201D3CB02C01A5241DF
:102CE000830A8B4201D38B02C01A5241430A8B42A2
:102CF00001D34B02C01A5241030A8B4201D30B028B
:102D0000C01A5241CDD2C3098B4201D3CB01C01AA4
:102D1000524183098B4201D38B01C01A52414309AE
:102D20008B4201D34B01C01A524103098B4201D39C
:102D30000B01C01A5241C3088B4201D3CB00C01A09
:102D4000524183088B4201D38B00C01A5241430881
:102D50008B4201D34B00C01A5241411A524110001C
:102D60007047CA0F00D04942031000D3404253407D
:102D700000229C4603098B422DD3030A8B4212D3B7
:102D80008901FC2212BA030A8B420CD389019211E9
:102D90008B4208D3890192118B4204D3890137D029
:102DA000921100E08909C3098B4201D3CB01C01AFB
:102DB000524183098B4201D38B01C01A524143090E
:102DC0008B4201D34B01C01A524103098B4201D3FC
:102DD0000B01C01A5241C3088B4201D3CB00C01A69
:102DE000524183088B4201D38B00C01A5241D9D281
:102DF00043088B4201D34B00C01A5241411A00D202
:102E000001465241104663465B1000D34042704772
:102E100063465B1000D3404201B50021004201D05F
:102E2000C9430846C046C04602BD10B500F036F89A
:102E3000EFF30080800001D5012010BD002010BDFF
:102E400010B500F02BF8EFF300804000800F012850
:102E500000D0002010BD10B500F098F8EFF300800E
:102E6000800001D5012010BD002010BD10B500F07C
:102E70008DF8EFF300804000800F012800D0002083
:102E800010BD10B500F0ACF8EFF300804000800FEB
:102E9000012801D0012010BD002010BD70B5012512
:102EA0002D050C001C4310D4EC4206D4AC420AD4CD
:102EB000994200D070BD904270BDE94217D4EB42F8
:102EC00015D4994270BD894270BDEC4206D5AC4222
:102ED000F9D58B4200D070BD824270BD6D004C00B0
:102EE000EC4204D25C00EC4201D28B4270BD034C38
:102EF00030B4FDF769FF30BC70BD00BF190013048A
:102F000070B50125ED0704004C4020D4441A01D2CD
:102F1000001B0919C60D4B00F2B2FF2A29D01B0E67
:102F20002CD000020C0228432C43D31ADC40051994
:102F300010D2280A02D3401C6D0611D0761EF60569
:102F40008019FF2A00DA70BDC00DC00570BD694050
:102F500000F0CEF801200543C541521C761CE8E77D
:102F600064089C40C90161408900E7D10124A04365
:102F7000E4E71B0E440200D0034870BD002AFCD1D8
:102F8000C00FC00770BD00BF0000C07F0123DB057C
:102F900002000A430DD4DA4203D49A4207D488428D
:102FA0007047D84214D4D94212D488427047804224
:102FB0007047DA4203D59A42F9D5814270475B00E7
:102FC0004200DA4204D24A00DA4201D2814270471A
:102FD00010B5024AFDF748FF10BD00BF09001304F9
:102FE0000123DB0502000A430DD4DA4203D49A42DE
:102FF00007D488427047D84214D4D94212D48842A8
:10300000704780427047DA4203D59A42F9D581422F
:1030100070475B004200DA4204D24A00DA4201D231
:103020008142704710B5024AFDF71EFF10BD00BF78
:103030000900160470B5420064414B005C41120E59
:1030400039D01B0E38D0FF2A3CD0FF2B3AD0D218F3
:103050007F3A40024902400A490A4518ED0106003C
:103060004E43000A090A48430104731A4019190C17
:103070004318990F04D05B08012149075B1A521CC1
:10308000D80904D3401CF50301D19D0607D0FF2ABF
:1030900008D2D50506D0E4072043401970BD0125AC
:1030A000A843F4E7002A01DCE00770BD2402FF20FA
:1030B0002043C00570BD1B0EFF2A03D0FF2B01D09B
:1030C000E00770BDFF2636064500B54206D84D0024
:1030D000B54203D8D218FF2A00D0E7E7004870BDF8
:1030E0000000C07F70B50125ED0704004C4022D4DC
:1030F000441A02D26C40001B0919C60D4B00F2B2F3
:10310000FF2A4BD01B0E50D000020C02A8432C43C8
:10311000D31ADC40051B05D5AD0019D36D08761E0A
:10312000521E37D0F605280A01D2801970BD7041B1
:103130006D0603D070BD6940FFF7E8FE9C400902B0
:103140006140490001D0401E70BD0124A04370BD04
:103150006D081DD001202B0C01D12D0410302B0E39
:1031600001D12D0208302B0F01D12D01001DAB0F15
:1031700001D1AD00801CEB0F01D16D00401C361A4F
:10318000121A6D00680AF5054019012A02DB70BDAC
:10319000002070BDC036300AC00770BD1B0E44024F
:1031A00001D1FF2B00D1024870BD002AF0D070BDC4
:1031B0000000C07F80807F7E7D7C7B7A7978777607
:1031C00076757473727171706F6E6E6D6C6C6B6A04
:1031D0006A696868676666656464636362616160A2
:1031E000605F5F5E5E5D5D5C5C5B5B5A5A5959581F
:1031F0005857575656555555545453535252525189
:10320000515050504F4F4F4E4E4D4D4D4C4C4C4BDE
:103210004B4B4A4A4A494949484848474747474625
:103220004646454545444444444343434342424261
:103230004241414108072700E80300000001000067
:1032400008076300020000008F0100000100000079
:103250000000000000000000040000001800000052
:103260000030000000000000883200000000002054
:103270004000000008010000C832000040000020AB
:10328000A0030000280100000000F04200000041FF
:10329000000040400000A0410100000001000000CB
:1032A0000100000001000000000040400000A041BB
:1032B00014000000010000000100000001000000F7
:0832C000010000000400000001
:04000005000000C136
:00000001FF
